:020000040000FA
:0A00000002107F75DC08E4F5EC2225
:10000B00021624786F08E22401FFF218E23400FE96
:10001B00F22278291202607829E2FC08E2FD08221C
:10002B00021F7CE4F5A775E34075E10475E202223B
:10003B00020D4E75960575BA8175BB02759713E463
:10004B00F5C4F5C343E8C022020C70BC000BBE0024
:10005B0029EF8DF084FFADF022E4CCF875F008EFBA
:10006B002FFFEE33FEEC33FCEE9DEC984005FCEEDF
:10007B009DFE0FD5F0E9E4CEFD22EDF8F5F0EE8410
:10008B0020D21CFEADF075F008EF2FFFED33FD40D5
:10009B0007985006D5F0F222C398FD0FD5F0EA224F
:1000AB00BB010A89828A83F0E5F0A3F0225006F7A0
:1000BB0009A7F01922BBFE06F3E5F009F31922E8B4
:1000CB008FF0A4CC8BF0A42CFCE98EF0A42CFC8A32
:1000DB00F0EDA42CFCEA8EF0A4CDA8F08BF0A42DAF
:1000EB00CC3825F0FDE98FF0A42CCD35F0FCEB8E50
:1000FB00F0A4FEA9F0EB8FF0A4CFC5F02ECD39FE06
:10010B00E43CFCEAA42DCE35F0FDE43CFC2275F07A
:10011B0008758200EF2FFFEE33FECD33CDCC33CC01
:10012B00C58233C5829BED9AEC99E58298400CF51C
:10013B0082EE9BFEED9AFDEC99FC0FD5F0D6E4CE4A
:10014B00FBE4CDFAE4CCF9A88222B800C1B900597E
:10015B00BA002DEC8BF084CFCECDFCE5F0CBF9784B
:10016B0018EF2FFFEE33FEED33FDEC33FCEB33FBDF
:10017B0010D703994004EB99FB0FD8E5E4F9FA2269
:10018B007818EF2FFFEE33FEED33FDEC33FCC93364
:10019B00C910D7059BE99A4007EC9BFCE99AF90F2C
:1001AB00D8E0E4C9FAE4CCFB2275F010EF2FFFEE98
:1001BB0033FEED33FDCC33CCC833C810D7079BECE3
:1001CB009AE899400AED9BFDEC9AFCE899F80FD55B
:1001DB00F0DAE4CDFBE4CCFAE4C8F922EB9FF5F0BE
:1001EB00EA9E42F0E99D42F0EC6480C86480984539
:1001FB00F022EB9FF5F0EA9E42F0E99D42F0E89C7D
:10020B0045F022E8600FECC313FCED13FDEE13FE7B
:10021B00EF13FFD8F122E86010ECA2E713FCED130B
:10022B00FDEE13FEEF13FFD8F022E8600FEFC333A0
:10023B00FFEE33FEED33FDEC33FCD8F122E6FC0888
:10024B00E6FD08E6FE08E6FF22ECF608EDF608EE02
:10025B00F608EFF622ECF208EDF208EEF208EFF2F8
:10026B0022D083D082E493F208740193F2087402D3
:10027B0093F208740393F2740473EC8EF0A4CCC560
:10028B00F0CCCDF8EFA4CEC5F02DFDE43CFCE8A4FA
:10029B002EC8C5F03DFDE43CFCEFA4FFE5F028FEC5
:1002AB00E43DFDE43CFC22781FE2FF64046005EFB3
:1002BB006405703978791212487876E22414FF18A5
:1002CB00E23400FED3121239401B782612121DE4C1
:1002DB00FCFD7BA07A8CF9F8D31201E750147F0652
:1002EB001214E5800DE47826F208F2800578751279
:1002FB0012487871E2FE08E2FF300F2B3016067CB5
:10030B00FF7D6A80047C007D32D312128B4003D3B5
:10031B008001C3920BC3EF94C2EE64809481503D75
:10032B00300B3AC20F80363016067CFF7D388004C6
:10033B007C007D00C312128B50028001C3920BD341
:10034B00EF94F4EE648094815003300B10D20F784D
:10035B001FE26009640160057F011214E5781FE25A
:10036B00FF6404600AEF64056005EF64067051C317
:10037B001212965002803E12121BBE0218BF581565
:10038B0020070D20080A781FE27804F27F028027ED
:10039B00121241802BC37823E2946418E29400502C
:1003AB001B2007182008157810E204F2C3940F7471
:1003BB00809480400B7F011214E58004E47810F2E6
:1003CB00781FE2B4070040030204F09003DDF82825
:1003DB0028730203F202041902048402049102043A
:1003EB00B50204C40204EBD3780AE294C018E29479
:1003FB000D40152000030204F012121BEF643C4E5B
:10040B0060030204F50204F01212410204F5C378F2
:10041B000AE2949818E2940D501412121BEF642CFC
:10042B007003EE640160030204F5FF0204F2121282
:10043B0041D3780AE2945018E2944650030204F533
:10044B0012129650030204F5300F030204F57F03DA
:10045B001214E53016067E317F9C80047E337F902C
:10046B0012123850028001C3920B7804300B0574C2
:10047B0004F280767406F2807112121BEF64034E45
:10048B0070687F038061201161C20D1215517811C4
:10049B0012125C7804E2FF6406600D7879E2FD08C5
:1004AB00E2780ECDF208EDF2803D121E651212704D
:1004BB0012123840357F05802E121E65C3781AE262
:1004CB00942C18E264809481501030080D780DE262
:1004DB0004F2641E70147F06800DE4780DF2800A1E
:1004EB00121E6580057F011214E5A20F920D7F107D
:1004FB007E00121CB6780EE2FC08E2FD7F0B021E9A
:10050B0053C20B121F1E920CC37825E2940418E2FF
:10051B00942950028001C39201A2954003D380011C
:10052B00C39200781FE2FF7E00C37001D392037861
:10053B0083E2B40700400302067090054CF82828AC
:10054B00730205610205A90205D00205E00205EE62
:10055B0002063C02065B7885E2700218E2601EEF31
:10056B004E6007781FE2640170087884121A8EF2CD
:10057B00800B7885E224FFF218E234FFF2121F435E
:10058B00121A9550030206877885E2700218E26012
:10059B0003020687788330002904F20206871206CD
:1005AB00F95005E478838026121F3AEF24FAFFE412
:1005BB003EFE121A9550030206872003030206879C
:1005CB00788302066B121A7A600302068718121AD6
:1005DB008CF2020687121A7A60030206871804F25D
:1005EB00020687C20B300C167888E26011E214F217
:1005FB00700CD20BD206D20DFF7E40121CB6300C03
:10060B0009300B067883740580191206F9500A120B
:10061B001A7A7068187402800A30000B200308786D
:10062B00837403F20880027884E4F208743CF2804D
:10063B004B300C18121A7A7043187406F27886E253
:10064B00FF08E27884CFF208EFF2803078838010D5
:10065B00300C0B121A7A7024187404F2801B7883F6
:10066B007404F28017121F3AD3121A96400778833C
:10067B007404F28004121A89F2121F557883E2FF78
:10068B007E00600964016005EF64067003C380019E
:10069B00D39204A2049286EF64044EC37001D392EA
:1006AB0090A2039287A201920D7F007E20121CB6AE
:1006BB00A20C920D7F007E01121CB6A204920D7F3C
:1006CB00807E00121CB67883E26404C36001D3926F
:1006DB000D7F407E00121CB6A200920D7F207E0083
:1006EB00121CB6A203920D7F087E00021CB6121FCD
:1006FB003AD37825E29F18E29E22E4FF1217F17895
:10070B0009EEF208EFF27F011217F1781DEEF208F5
:10071B00EFF27F021217F17824EEF208EFF27F036B
:10072B001217F17817EEF208EFF2121C2E7822EE68
:10073B00F208EFF2120F5A7819EEF208EFF23011BD
:10074B0050780BE2FE08E2FF7822E2FC08E2FDD3D0
:10075B009FEC9E4014780BECF208EDF27809E2FF67
:10076B0008E27811CFF208EFF27816E22438F2188B
:10077B00E234FFF2E2FE08E2FF121ED27813E2FE31
:10078B0008E278161212784003020850C2110208D0
:10079B005020100302085020070330080878091274
:1007AB00125C020850781DE2FE08E2FFD394C8EEFB
:1007BB009400400A7820E4F2087432F28019D3EFE7
:1007CB009464EE940078204008E4F2087464F2809C
:1007DB0006E4F20874C8F2C37816E2940818E2949F
:1007EB00524024780DE61846701D121268780AE202
:1007FB009FFF18E29EFE7815121280503E18742E41
:10080B00F20874E0F280347802E2FE08E2780A1211
:10081B0012784003D38001C3920B7800E2FE08E20A
:10082B00FFD37823E29F18E29E4005300B0580082A
:10083B00300B05121D4F8003121D157815E2FE08B3
:10084B00E2FF121ED27822E2FF08E27800CFF20814
:10085B00EFF21212547802ECF208EDF27F03121E43
:10086B0053781D7F0412089E78247F0512089E780A
:10087B0017E2FC08E2FD7F06121E537819E2FC0812
:10088B00E2FD7F07121E537815E2FC08E2FD7F0A9A
:10089B00021E53E2FC08E2FD121E532278281202BC
:1008AB006C000000007F041217F17873EEF208EF72
:1008BB00F27F051217F17877EEF208EFF2C3945737
:1008CB00EE6480947E502418E2FE08E2FFC3787435
:1008DB00E29FFF18E29EFE121EEAD3EF94C8EE646D
:1008EB008094804006D21878738004C2187877E21F
:1008FB00FF08E27871CFF208EFF23016201216944F
:10090B0074FF7B3AFAF9F81216D8C000121687FF5B
:10091B00D0001216B250061216871216C7121F31CC
:10092B00E4C006C0077B64FAF9F8C000121687FF13
:10093B00D000121921AC06D0E02F7876F2D0E03C33
:10094B0018F23016211216947BD47AFE79FF78FFB9
:10095B001216D8C000121687FFD0001216B250061E
:10096B001216871216C7121F28E4C006C0077B6435
:10097B00FAF9F8C000121687FFD000121921AC0645
:10098B00D0E02F787AF2D0E03C18F2A218920D7FCB
:10099B00007E10121CB67873E2FC08E2FD7F081291
:1009AB001E537877E2FC08E2FD7F09021E53F81212
:1009BB0000CA78301202607830E2FC08E2FD08E2EF
:1009CB00FE08E2FF22AB07AA06E4F9F8901FFC939E
:1009DB00FE740193FFEE3395E0FDFC22EB2FFFEA53
:1009EB003EFEED39FDEC38FC783EE2FB25E025E0E0
:1009FB002435F8120254EB25E025E02435F80202E9
:100A0B0048E6FF08E6782CCFF208EFF243E6081829
:100A1B00E2FE08E2FF22E2FE08E2FF08E2FB08E248
:100A2B00F908E2FA08E2CB22A60608A60718E6FEAA
:100A3B0008E622EEF208EFF2901FFCE493FE74013D
:100A4B0093FBAA06EA3395E0F9F822A905AA06ABAF
:100A5B0007783CE2FE08E2FFE4FCFD227BFC7A0F08
:100A6B00E4F9F8020155FFE4FCFD020254F8C3EF70
:100A7B009BFFEE9AFEE499FDE498FC22EFC39408E9
:100A8B007480948022C3EF9BFFEE9AFEED99FDECF0
:100A9B0098FC221200CAE47B0FFAF9F80200CA2074
:100AAB000903020B8EE4FF121B507834EEF208EFB1
:100ABB00F27F02121B507836EEF208EFF27F011232
:100ACB001B50300A14780BE6240FFD18E436FCD3C8
:100ADB007837E29D18E29C5009D3EF94D0EE94073F
:100AEB004003D38001C39207300A18780BE624F138
:100AFB00FF18E634FFFEC37837E29F18E29E4003EF
:100B0B00D38001C392087808E6FE08C3121DCC40BF
:100B1B0003300715D3780DE6940018E69400402CAB
:100B2B0008E6161870231680207808E6FE08D31204
:100B3B001DCC4018200815780DE694FF18E6940399
:100B4B00500A0806E618700106121B9D780CE6FE8B
:100B5B0008E67806C333CE33CED8F97935F3EE19E0
:100B6B00F33007097834E2F208E24401F230080965
:100B7B007834E2F208E24402F27834E2FE08E2FF53
:100B8B00121E922253E6F77F32121A17E4782DF6D3
:100B9B00782FF6784576070876D078347614782E49
:100BAB007680D2157F05121DB77824120A3378038D
:100BBB00C333CE33CED8F97835120A717F01121DAB
:100BCB00B77826120A337806C333CE33CED8F978EA
:100BDB0039120A717F02121DB77828120A33780373
:100BEB00C333CE33CED8F9FFE4FCFD783D1202546B
:100BFB007F03121DB7782A120A337806C333CE331C
:100C0B00CED8F9FFE4FCFD78411202547F04121D8B
:100C1B00B77832A60608A607E4FF120A87501578A4
:100C2B0032E6FC08E6FDEF25E02458F8A60408A6FA
:100C3B00050F80E67F1B121DB77830A60608A607A6
:100C4B00E4FF120A8750157830E6FC08E6FDEF2525
:100C5B00E02448F8A60408A6050F80E6759605D291
:100C6B008C43E60822C0E0C0F0C083C082C0D075C0
:100C7B00D000C000C001C002C003C004C005C00644
:100C8B00C007782DE6D3940374809480500BE6FD57
:100C9B00AFBDAEBE1212A0800B782FE6FDAFBDAE7E
:100CAB00BE120FEF782DE664046005E6640570074D
:100CBB00782CE608F68040782D06E6D394037480F2
:100CCB00948040027600784508E6161870011614D9
:100CDB0086064E7022784576070876D0782DE61872
:100CEB00F6782FE66401782D70077604782FF6805E
:100CFB00067605782F7601782DE6146012146014B1
:100D0B0014601614601824047019759605801775F5
:100D1B0096018012759602800D7596038008759664
:100D2B001B8003759604C2EDD007D006D005D00406
:100D3B00D003D002D001D000D0D0D082D083D0F05D
:100D4B00D0E032C0E0C0F0C083C082C0D075D0000C
:100D5B00C000C001C002C003C004C005C006C0076C
:100D6B0030C203020DF2E5C054F0601E24F0605453
:100D7B0024D0605424F0606324307063C2C5D21752
:100D8B00E5C2540164017065804130170EC21778BB
:100D9B0047E5C2F208E4F208F280257849E2ADC2D9
:100DAB0018F2ED08F27847E2FF30E00F08E2FC089A
:100DBB00E2FD1214097848E4F208F27847E204F2F3
:100DCB00D2C18029C2C4802530C1227847E2FF12EC
:100DDB000E158FC27847E204F28012C2C4800E5304
:100DEB00C17F43C1808000C2C5C2C4D2C1C2C0D0C2
:100DFB0007D006D005D004D003D002D001D000D04C
:100E0B00D0D082D083D0F0D0E032783FEFF25401D3
:100E1B00C37001D3920E783FE2FFC31308F2C3EF06
:100E2B009418748094805026E2FF25E0244AF8E25F
:100E3B00FC08E2FD20060330196B300E68EF6401ED
:100E4B007063C206C219784CE2543FF28057783F68
:100E5B00E2C3942074809480500E08E224F4FF12B5
:100E6B001AFFAC06AD07803D783FE2FF7E006421A0
:100E7B007012300505FA7B0180047A007B00AC020E
:100E8B00AD038021EF64234E70087888E27C00FD6F
:100E9B0080137840E2641270097886E2FC08E2FD68
:100EAB008003E4FCFD300E02ECFDAF0522782E1220
:100EBB000A3E7F507EB17D3A7C00121921783012A8
:100ECB000260782E120A21120A781209BDC004C0E2
:100EDB0005C006C007AF8EE4FCFDFE780412023598
:100EEB00C004C005C006C007AF8DE4FCFDFE78044E
:100EFB00120221D003D002D001D000EF4BFBEE4AFF
:100F0B00FAED49F9EC48F8D007D006D005D004C368
:100F1B00EF9BFFEE9AFEED99FDEC98FC78301202F8
:100F2B0060901FFCE41209DA7830120A271209B913
:100F3B00E47B64FAF91209B97B787A1F790278009D
:100F4B0012192178301202607830081209C9223048
:100F5B00095812122AC006C0077824E2FE08E2FBE9
:100F6B00AA06E4F9F8D007D0061219217828120244
:100F7B00607822E2FE08E2FF121AA9E4FCFDFE787B
:100F8B0028E2FB08E2F908E2FA08E2CBF81200CA01
:100F9B007828120260782812122CE47B64FAF9F894
:100FAB0012192178281202608009782812026C002D
:100FBB00000000782812122CC006C0077817E2FE3A
:100FCB0008E2FBAA06D007D006C3EF9BFFEE9AFE02
:100FDB00ED9400FDEC9400FC782812026078280850
:100FEB0012123122E4783CF208F2EDC454F024489A
:100FFB00F8C0007847E6D00025E028F8A60608A63A
:10100B0007ED64017009784706E664087001F6E4A1
:10101B00783CF208F2FF120A87501DEDC454F024FD
:10102B0048F8EF25E028F8E6FA08E6FB783DE22BD6
:10103B00F218E23AF20F80DE783DE230E209E22468
:10104B0004F218E23400F2783CE2FE08E27803CEB8
:10105B00C313CE13D8F9793DF3EE19F3ED783C7049
:10106B0008E2FE08E278308006E2FE08E27832A65B
:10107B000608F622787FE4F6D8FD7581670210C664
:10108B00021743E493A3F8E493A34003F68001F221
:10109B0008DFF48029E493A3F85407240CC8C33366
:1010AB00C4540F4420C8834004F456800146F6DF35
:1010BB00E4800B0102040810204080901EC6E47EE1
:1010CB00019360BCA3FF543F30E509541FFEE4932A
:1010DB00A360010ECF54C025E060A840B8E493A3F1
:1010EB00FAE493A3F8E493A3C8C582C8CAC583CA1C
:1010FB00F0A3C8C582C8CAC583CADFE9DEE780BED4
:10110B00E4782BF208F230190818E24480F208E276
:10111B00F2300609782BE24440F208E2F230010982
:10112B00782BE24420F208E2F2301809782BE244E3
:10113B0010F208E2F2121F1E5009782BE24401F262
:10114B0008E2F2300406121A104480F27883E2644B
:10115B00046006121A104440F2300006121A1044B2
:10116B0020F2300F06121A104410F2300306121A36
:10117B00104408F2781FE25407FF782BE2FE08E2D6
:10118B004FFF18EEF2FE08EFF222781DE2FE08E2A6
:10119B00FF7C007DDF12028512001DE2FE08E2FFDC
:1011AB00E47BD07A07F9F812015512001DE2FE0814
:1011BB00E22420FFE43EFEE43DFDE43CFC782912F2
:1011CB000260E47FFFFEFDFC7829E2FB08E2F908F0
:1011DB00E2FA08E2CBF8D31201FD4007786774FFFF
:1011EB00F2800A12002208E2FF7867EFF27867E2DA
:1011FB00FEE47806CEC313CE13D8F97963F3EE1958
:10120B00F3E47869F2786BF208F2786A7403F222ED
:10121B00781B08E22401FFF218E23400FEF2227878
:10122B0005E2FC08E2FD08E2FE08E2FF22C3782596
:10123B00E29F18E29E22E4781BF208F222E2FF08FA
:10124B00E2CF780EF208EFF2227809E2FC08E2FD19
:10125B0022E2FF08E27815CFF208EFF2227820E2C3
:10126B00FE08E2FF22780EE2FE08E2FF22FFC3E255
:10127B009F18E29E22F208EFF2C394E0EE942E2226
:10128B00EF9DEC6480F8EE648098227825E294045C
:10129B0018E2942922783CEEF208EFF208EDF230D6
:1012AB00E030E2120A02780612020EC004C005C03A
:1012BB0006C007783EE2120A02D003D002D001D05A
:1012CB0000120A90C004120A56D0001209E77806E1
:1012DB008030783EE2120A02780312020EC004C07C
:1012EB0005C006C007783EE2120A02D003D002D036
:1012FB0001D000120A90C004120A56D0001209E75E
:10130B00780312020EEB25E02424F8A60608A607A4
:10131B00227F021217F1C3EF9404EE94295002803E
:10132B0001C39201A2954003D38001C39200781FA1
:10133B00E2C37001D39203C205C202C206E47884F1
:10134B00F208F2121A9E7F021217F1C006C00712A2
:10135B001F3AD005D004D3ED9FEC9E5005121A898D
:10136B00800A30000C20030978837401F2C20480D8
:10137B000778837404F2D204A2039287C33004016A
:10138B00D39286C3300401D3929022786AE2146020
:10139B001B14603F2402705512000EEF64184E7040
:1013AB005CF208F2786A04F27FA0804E12000EEF16
:1013BB0064064E7048F208F2FF121F6E7868E2FF67
:1013CB007865E204F2B50706786A7402F222E478D3
:1013DB006AF22212000E18E2B5072218E2B5061DBA
:1013EB00E4786FF208F2786AF27865F222E4786AB0
:1013FB00F2786FF208F27865F2FF121F6E22783FD7
:10140B00EFF208ECF208EDF2783FE2FFC3137842FB
:10141B00F27E00C3EF9418748094804017EF9420F1
:10142B0074809480500EE224F4FF7840E2FC08E2D2
:10143B00FD021478783FE2642170127841E264EA8D
:10144B00700218E2C37001D3920E021E76783FE24F
:10145B00642370070808E2FF021E847842E26412DC
:10146B00700A7840E2FE08E2FF121E41227843EC3C
:10147B00F208EDF2EF14601514602814603E24039B
:10148B0070487DB07C361214D6788180387843E270
:10149B00FE08E2FF7BB07A367DC87C32121C517895
:1014AB007F80227843E2FE08E2FF787DE2FA08E2D1
:1014BB00FB7DF87C2A121C51787B80097DE07C2E09
:1014CB001214D6787DEEF208EFF2227843E2FE0892
:1014DB00E2FF7B987A3A121C5122781FEFF2B40785
:1014EB0000505C9014F5F828287302150A02150CAD
:1014FB0002150C021513021529021536021541802F
:10150B0003121241C20C80341212417825E224DC02
:10151B00FF18E23405FE121254121B288021E478C6
:10152B0010F27826F208F2D20C8011E47810F278DF
:10153B000DF2D20C8006E47810F2D20C121BC37899
:10154B001FE2FF021D6A300D56200964780AE6FE81
:10155B0008E6FF7C037DFF12028578281202607873
:10156B0008E6FE08E6FFE4FCFDC004A905AA06ABED
:10157B00077828E2FC08E2FD08E2FE08E2FFD00053
:10158B00120155780CA60608A607D3E694FF18E6B9
:10159B009403400576030876FF121B9DD209223077
:1015AB00090EC209121DD6121B9DE4FFFE121E92DC
:1015BB0022782874FEF2087400F208744AF2782834
:1015CB00121A00741075F0201200AB12110B1219C5
:1015DB00E918121A00E4F5F01200AB78091219E4BD
:1015EB00781D1219E478241219E478171219E4788B
:1015FB00191219E478731219E478771219E4781533
:10160B001219E4780EE2F908E2FF7828E2FB08E20F
:10161B00FA08E2C98FF00200ABC0E0C0F0C083C093
:10162B0082C0D075D000C000C001C002C003C0048E
:10163B00C005C006C007783416E670057614120A8A
:10164B00AAD2EC30150C782E06E6648B700EC21500
:10165B00800A782E16E664757002D215782EE6F5A0
:10166B008CD007D006D005D004D003D002D001D047
:10167B0000D0D0D082D083D0F0D0E0327828E2FCFA
:10168B0008E2FD08E2FE08E2227871E2FE08E2FFC2
:10169B00EE3395E0FDFCEF2406FFEE34FFFEED3458
:1016AB00FFFDEC34FFFC22121921AC00AD01AE02A0
:1016BB00AF03E47B32FAF9F8D30201E72464FFE4C9
:1016CB003EFEE43DFDE43CFC78280202601200CAB9
:1016DB007828120260E47B64FAF9F822786AE22433
:1016EB00FC602B04704C7862E2FE08E2FF786CE23F
:1016FB002FF218E23EF2E27869F2FF7867E2FEEF32
:10170B00C39E40317869EEF2087404F28027786248
:10171B00E2FE08E2FFC3786CE29FF218E29EF2E26F
:10172B00FC08E2FDEC7869F2ED4C7009087403F2E9
:10173B008000121195021AD51218DD1219A6120B80
:10174B008F121D3412189512131C121F97121EADF7
:10175B00121BE71215BC121F5E121F75121C733081
:10176B00130312179C3014F1120705788BE21460E7
:10177B000C14600E2402700D1208A780081202B21E
:10178B00800312050C788BE204F2640470CBF280B8
:10179B00C8121DE17828EFF27866E26404701C78B9
:1017AB0028E27009121D9E7828EFF280287864E2F7
:1017BB00FE7828E2FFC39E502980067828E2FF605E
:1017CB0003021965121D9E7828EFF27866E26F60AE
:1017DB00077828E2FF021A497866E2640370030275
:1017EB0016E712139622EF14601714601B14602374
:1017FB0014602B1460332405703A53E6F778248079
:10180B000C53E6F77826801053E6F77828120A0C6B
:10181B00021CD753E6F7782A120A0C021C0B53E66C
:10182B00F77830120A0C020EB853E6F77832120A28
:10183B000C021843E4FEFF22782E120A3E7F307E04
:10184B00387D1F7C001219217830120260782E121D
:10185B000A21120A787830120260901FFCE41209F8
:10186B00DA7830120A27F81200CA78301202607840
:10187B00301209C4E47BFC7A0FF9F8121921783085
:10188B001202607830081209C922C210C211C20FAD
:10189B0078157446F2087450F27820E4F20874C894
:1018AB00F2E47810F2780DF27826F208F2781BF257
:1018BB0008F2121F31EE12124DE4FF1217F1C3EFB3
:1018CB0094C0EE940D5005E4781FF222781F74013A
:1018DB00F2227828E5A7F2121DF5121EF6121F0050
:1018EB00120003121F87121E08121E1B12002E124B
:1018FB001F8B121F0A121EBA121F93121E2E121DBD
:10190B0085121F6712003E121F8F121EA0121F148A
:10191B007828E2F5A722C2D5E830E70FB2D5E4C3A9
:10192B009BFBE49AFAE499F9E498F8EC30E717B2E8
:10193B00D5121957120155E4C39BFBE49AFAE499AB
:10194B00F9E498F8800312015530D50DE4C39FFFDD
:10195B00E49EFEE49DFDE49CFC2278667404F27820
:10196B0064E26F6035EFF224FE600E146012240205
:10197B00701578297402F2801378297403F2800CA5
:10198B0078297404F2800578297405F27829E2FD30
:10199B007F887E13121C95121AD522A29792167865
:1019AB00813016127439F208746CF2787D7430F24F
:1019BB000874D4F280107438F2087440F2787D7495
:1019CB0035F2087420F2787F7435F2087452F2788D
:1019DB007B742CF20874ECF222E2FE08E2FF78280A
:1019EB00E2FB0808E2F92402F218E2FA3400F2EE04
:1019FB008FF00200ABE2FB0808E2F92402F218E2D6
:101A0B00FA3400F222782BE2F208E2227828EFF285
:101A1B00C28D858C8AD28C7828E2FF14F2EF601984
:101A2B00E4FFEFC39404748094805008308DFDC2A2
:101A3B008D0F80EE121F7580DEC28CC28D22E47872
:101A4B0064F27866E26F6026EFF224FE600F14609A
:101A5B0017240270167D017F887E1380067D017F1F
:101A6B00107E27121C958003121195121AD522781D
:101A7B008408E224FFFFF218E234FFF24F22E478ED
:101A8B0083F208740EF208741022C37825E29F18B3
:101A9B00E29E227888F27886F208740AF222E4FD3C
:101AAB00EDC39415748094805019ED25E0249AF5BC
:101ABB0082E4341FF583D37401939FE4939E500308
:101ACB000D80DDED901FC693FF227869E2FD75F066
:101ADB0004A4FFC374FF9FFF740395F0FEEFF5E9B9
:101AEB00EEF5EAED700453DBBF22E5DB54407003E7
:101AFB0043DB4022E4FDFCEF14600E14600F146016
:101B0B0010240370137881800A787F8006787B809D
:101B1B0002787DE2FC08E2FDAE04AF0522D211781B
:101B2B0013EEF208EFF208ECF208EDF2E4780BF2A8
:101B3B0008F2C210AE04AF05121ED2C20D121F82E4
:101B4B00D20D021551EF14600B14601224027018A1
:101B5B007824800C7826E6FE08E6FF021B777828AF
:101B6B00E6FE08E6FF021CF6E4FEFF221209D01285
:101B7B0000CA783812026078381209C4E47BFE7A06
:101B8B0007F9F812015578381202607838081209F3
:101B9B00C922C374FF780D96FF74031896FEEFF5F8
:101BAB00FBEEF5FC08E61846700453DABF22E5DAC3
:101BBB005440700343DA4022300C157815E2FE08CE
:101BCB00E2FF121ED2121270121EDED20D121F82F3
:101BDB00A20C920D121551A20C921022E47866F20F
:101BEB007864F2FF121F6E121DE17828EFF2600588
:101BFB00E2FF021965121D9E7828EFF2121A492294
:101C0B001209D01200CA782E120260782E1209C463
:101C1B007BFE7A07120A6B782E120260782E08125E
:101C2B0009C922781DE2FE08E2FF12125412028546
:101C3B007805120260E47BE87A03F9F8C00012120F
:101C4B002AD0000201557845ECF208EDF2D3E29F61
:101C5B0018E29E4006E2FE08E2FF22D3EF9BEE9ACB
:101C6B004005AE02AF032222C213C21430121AC2B5
:101C7B00127889E204F264017003F2D213788AE2DB
:101C8B0004F264197003F2D21422E47869F218EDAD
:101C9B00F2E47865F2FC7D0A120056786DEEF208DC
:101CAB00EFF2E408F208F2786AF22253E6FEEFF460
:101CBB00FDEEF4FC784CE25CF208E25DF2300D08CC
:101CCB0018E24EF208E24FF243E601221209D0125B
:101CDB000A9E782E120260782E1209C4120A6778B7
:101CEB002E120260782E081209C9221209D0120A8C
:101CFB009E783812026078381209C4120A67783855
:101D0B001202607838081209C9221212687816E29A
:101D1B002FF218E23EF2D308E2940818E2945240F4
:101D2B00077452F2087408F222C209D20A121DD6A5
:101D3B00121F31780AA60608A60778087646087699
:101D4B0050021B9D121268C37816E29FFF18E29E89
:101D5B00FE121280500818742EF20874E0F222530F
:101D6B00E6FEEF5407FF784CE2FC08E254F8FDEC7A
:101D7B0018F2ED4F08F243E60122E5C8540453C8AC
:101D8B00FB75CDB075CC3F75CBB075CA3F43C8045E
:101D9B0042C822781FE2D394017480948040037F61
:101DAB0003227883E27F0170027F02228F967F0AE3
:101DBB00121A17C2EDD2EC30EDFDC2EDAFBDAEBEC7
:101DCB0022E6FF7835E29F18E29E22E4780CF608B3
:101DDB00F6C207C208223001037F01223018037FAD
:101DEB0002227F00300F027F0322E4F5A753D9BFF5
:101DFB0075D90853DFFC43DF0243D840227580BFFF
:101E0B0075A4C075F1C175D4FF75A70F7599C02264
:101E1B00E4F5A77590BE75A55975D50175A70F7516
:101E2B009B1922AF885388AF758C80EF5440FEEF1F
:101E3B0054104E428822EF4E78867006F208740AD0
:101E4B00F222EEF208EFF22253E6FEEF25E0244AEF
:101E5B00F8ECF208EDF243E60122121270780B66F1
:101E6B007003EE18666003121EDE22300506200E8C
:101E7B0003121F55A20E920522EF7004C2028002BC
:101E8B00D2027888EFF22253E6FE784EEEF208EF9C
:101E9B00F243E6012275F42475F5FF53C1FC43C1EF
:101EAB008122E5EF54086408C37001D3921922E430
:101EBB00F5A9E5A95480648070F822818B0082001B
:101ECB0000008202000000C2A97808A60608A60737
:101EDB00D2A922C2A9780AA60608A607D2A922EE81
:101EEB0030E707C3E49FFFE49EFE2275DA42E4F578
:101EFB00FC43DF802275DB42E4F5EA43DF802243BB
:101F0B00B280E5B2544060FA2275E60175F60175B0
:101F1B00A8A222300505300202D322C32253E6FECB
:101F2B007881121F4C2253E6FE787F121F4C2253EE
:101F3B00E6FE787B121F4C2253E6FE787D121F4C77
:101F4B0022E2FE08E2FF43E60122C205C202E412CE
:101F5B001A9E22C212E47889F208F222758E02755B
:101F6B008902227869EFF2021AD575EBFFE4F5ECE2
:101F7B002253C87FD21232A20D920A2275C91022A7
:101F8B0075EF022275D11C2275B640220208A700FC
:101F9B00FA017701F402EE03E804E205DC06D6074A
:101FAB00D008CA09C40ABE0BB80CB20DAC0FA013F3
:101FBB008817701D4C2CEC61A888B8383E43474BF2
:101FCB004D4E5051535455565758595A5B5C5D5DA5
:011FDB005CA9
:021FFC0006726B
:00000001FF
